:100000000C945C000C9441010C941A010C9479003E
:100010000C9479000C9479000C9479000C9479007C
:100020000C9479000C9479000C9479000C94900154
:100030000C9479000C9468010C9479000C9479006C
:100040000C94D0000C9479000C9479000C947900F5
:100050000C9479000C9479000C9479000C9479003C
:100060000C9479000C947900000000002400270013
:100070002A0000000000250028002B0004040404CE
:100080000404040402020202020203030303030342
:10009000010204081020408001020408102001021F
:1000A00004081020000000080002010000030407FB
:1000B000000000000000000011241FBECFEFD8E0B8
:1000C000DEBFCDBF11E0A0E0B1E0E8EBF5E002C09B
:1000D00005900D92A430B107D9F721E0A4E0B1E07A
:1000E00001C01D92AD30B207E1F70E94BC010C9433
:1000F000DA020C94000090E0FC01EC55FF4F2491D3
:10010000FC01E057FF4F3491FC01E458FF4FE491AC
:10011000EE23C9F0222339F0233001F1A8F4213075
:1001200019F1223029F1F0E0EE0FFF1FEE58FF4FDA
:10013000A591B4918FB7F894EC91611126C03095D8
:100140003E233C938FBF08952730A9F02830C9F093
:10015000243049F7809180008F7D03C0809180001A
:100160008F7780938000DFCF84B58F7784BDDBCF1E
:1001700084B58F7DFBCF8091B0008F778093B000E6
:10018000D2CF8091B0008F7DF9CF3E2BDACF08958A
:1001900084E080938100109285001092840008957D
:1001A0001F920F920FB60F9211242F933F938F93AC
:1001B0009F93AF93BF938091090190910A01A09101
:1001C0000B01B0910C013091080123E0230F2D3772
:1001D00058F50196A11DB11D2093080180930901D6
:1001E00090930A01A0930B01B0930C01809104013C
:1001F00090910501A0910601B09107010196A11D02
:10020000B11D8093040190930501A0930601B09362
:100210000701BF91AF919F918F913F912F910F90C7
:100220000FBE0F901F90189526E8230F0296A11D70
:10023000B11DD2CF1F920F920FB60F9211242F93A0
:100240003F934F935F936F937F938F939F93AF935E
:10025000BF93EF93FF93E0910201F09103010995A1
:10026000FF91EF91BF91AF919F918F917F916F918E
:100270005F914F913F912F910F900FBE0F901F9064
:1002800018951F920F920FB60F9211242F933F9340
:100290004F935F936F937F938F939F93AF93BF938E
:1002A000EF93FF93E0910001F09101010995FF9117
:1002B000EF91BF91AF919F918F917F916F915F91DE
:1002C0004F913F912F910F900FBE0F901F90189557
:1002D0001F920F920FB60F9211242F933F934F93BB
:1002E0005F936F937F938F939F93AF93BF93EF939E
:1002F000FF9360E08BE00E947B0010928100FF91F1
:10030000EF91BF91AF919F918F917F916F915F918D
:100310004F913F912F910F900FBE0F901F90189506
:100320001F920F920FB60F9211242F933F934F936A
:100330005F936F937F938F939F93AF93BF93EF934D
:10034000FF9361E08BE00E947B008CEF9FEF909326
:10035000850080938400FF91EF91BF91AF919F91B1
:100360008F917F916F915F914F913F912F910F905E
:100370000FBE0F901F901895789484B5826084BD4D
:1003800084B5816084BD85B5826085BD85B5816099
:1003900085BD80916E00816080936E001092810017
:1003A00080918100826080938100809181008160D2
:1003B0008093810080918000816080938000809193
:1003C000B10084608093B1008091B000816080931F
:1003D000B00080917A00846080937A0080917A00E6
:1003E000826080937A0080917A00816080937A00A5
:1003F00080917A00806880937A001092C100E2E9CF
:10040000F0E02491EEE7F0E084918823C1F090E0E1
:10041000880F991FFC01E859FF4FC591D491FC0149
:10042000EE58FF4FA591B4919FB7F8948881E22FC1
:10043000E0958E2388838C91E823EC939FBF61E045
:1004400082E00E947B00EBE9F0E02491E7E8F0E035
:100450008491882399F090E0880F991FFC01E85956
:10046000FF4FA591B491FC01EE58FF4F85919491F7
:100470008FB7F894EC91E22BEC938FBF84E690E079
:10048000909389008093880083E080936F0010929E
:1004900080001092810088EC90E09093010180939D
:1004A000000180916900836080936900E89AC0E44C
:1004B000CC24CA9483E0D82EE12CF12C00E010E08B
:1004C000C0937C0080917A00806480937A00809150
:1004D0007A0086FDFCCF80917800A0917900BA2F38
:1004E000A82F23EE31E00E94D302A70196010E94BB
:1004F000830230938900209388000115110501F3D0
:100500000E940000DDCF052E97FB1EF400940E9490
:100510009A0257FD07D00E94A20207FC03D04EF4B6
:100520000C949A0250954095309521953F4F4F4F2E
:100530005F4F089590958095709561957F4F8F4F8F
:100540009F4F0895A1E21A2EAA1BBB1BFD010DC0EF
:10055000AA1FBB1FEE1FFF1FA217B307E407F50773
:1005600020F0A21BB30BE40BF50B661F771F881F4F
:10057000991F1A9469F760957095809590959B01E5
:10058000AC01BD01CF010895A29FB001B39FC0018E
:10059000A39F700D811D1124911DB29F700D811DAF
:1005A0001124911D08950E94C402B7FF0895821B73
:0805B000930B0895F894FFCFAE
:0405B800C700C700B1
:00000001FF
