:100000000C945D000C94A0020C9479020C94850071
:100010000C9485000C9485000C9485000C9485004C
:100020000C9485000C9485000C9485000C9485003C
:100030000C9485000C9485000C9485000C9485002C
:100040000C942F020C9485000C94ED020C94C702C2
:100050000C9485000C9485000C9485000C9485000C
:100060000C9485000C9485000000000024002700FB
:100070002A0000000000250028002B0004040404CE
:100080000404040402020202020203030303030342
:10009000010204081020408001020408102001021F
:1000A00004081020000000080002010000030407FB
:1000B0000000000000000000A70411241FBECFEFC5
:1000C000D8E0DEBFCDBF11E0A0E0B1E0ECEFF9E099
:1000D00002C005900D92A633B107D9F721E0A6E33F
:1000E000B1E001C01D92AE3DB207E1F710E0CDE5F1
:1000F000D0E004C02197FE010E94F604CC35D10760
:10010000C9F70E941F030C94FC040C94000090E0BB
:10011000FC01EC55FF4F2491FC01E057FF4F349157
:10012000FC01E458FF4FE491EE23C9F0222339F09B
:10013000233001F1A8F4213019F1223029F1F0E047
:10014000EE0FFF1FEE58FF4FA591B4918FB7F894B3
:10015000EC91611126C030953E233C938FBF0895EA
:100160002730A9F02830C9F0243049F78091800069
:100170008F7D03C0809180008F7780938000DFCFD8
:1001800084B58F7784BDDBCF84B58F7DFBCF809125
:10019000B0008F778093B000D2CF8091B0008F7D78
:1001A000F9CF3E2BDACF3FB7F89480913D01909183
:1001B0003E01A0913F01B091400126B5A89B05C02A
:1001C0002F3F19F00196A11DB11D3FBFBA2FA92FD6
:1001D000982F8827BC01CD01620F711D811D911DD3
:1001E00042E0660F771F881F991F4A95D1F708953F
:1001F0000895AF92BF92CF92DF92EF92FF920F934A
:100200001F93CF93DF936C017B018B01040F151FAC
:10021000EB015E01AE18BF08C017D10759F0699114
:10022000D601ED91FC910190F081E02DC601099578
:10023000892B79F7C501DF91CF911F910F91FF9025
:10024000EF90DF90CF90BF90AF900895FC01538D59
:10025000448D252F30E0842F90E0821B930B5417A0
:1002600010F0CF96089501970895FC01918D828D2D
:10027000981761F0A28DAE0FBF2FB11D5D968C91C6
:10028000928D9F5F9F73928F90E008958FEF9FEF05
:100290000895FC01918D828D981731F0828DE80FC1
:1002A000F11D858D90E008958FEF9FEF0895FC017B
:1002B000918D228D892F90E0805C9F4F821B910948
:1002C0008F739927089581E491E00E94570121E0FE
:1002D000892B09F420E0822F089580E090E0892B9B
:1002E00029F00E94630181110C9400000895FC0123
:1002F000A48DA80FB92FB11DA35ABF4F2C91848D87
:1003000090E001968F739927848FA689B7892C93E3
:10031000A089B1898C91837080648C93938D848D36
:10032000981306C00288F389E02D80818F7D808339
:100330000895EF92FF920F931F93CF93DF93EC01F9
:1003400081E0888F9B8D8C8D98131AC0E889F9897C
:10035000808185FF15C09FB7F894EE89FF8960837F
:10036000E889F98980818370806480839FBF81E000
:1003700090E0DF91CF911F910F91FF90EF90089542
:10038000F62E0B8D10E00F5F1F4F0F731127E02E1D
:100390008C8D8E110CC00FB607FCFACFE889F98955
:1003A000808185FFF5CFCE010E947701F1CFEB8DE3
:1003B000EC0FFD2FF11DE35AFF4FF0829FB7F89429
:1003C0000B8FEA89FB8980818062CFCFCF93DF9347
:1003D000EC01888D8823B9F0AA89BB89E889F9895D
:1003E0008C9185FD03C0808186FD0DC00FB607FC92
:1003F000F7CF8C9185FFF2CF808185FFEDCFCE01C5
:100400000E947701E9CFDF91CF910895809100019B
:1004100021E4829FC0011124823091053CF0880FB5
:10042000991F880F991F05970197F1F761E083E005
:100430000E94870083E290E00197F1F760E083E09B
:100440000C948700FC0101900020E9F73197AF017F
:10045000481B590BBC0181E491E00C94F9001F92F8
:100460000F920FB60F9211242F933F938F939F9368
:10047000AF93BF938091390190913A01A0913B01D4
:10048000B0913C013091380123E0230F2D3758F50E
:100490000196A11DB11D20933801809339019093DD
:1004A0003A01A0933B01B0933C0180913D019091B2
:1004B0003E01A0913F01B09140010196A11DB11DE7
:1004C00080933D0190933E01A0933F01B093400182
:1004D000BF91AF919F918F913F912F910F900FBE40
:1004E0000F901F90189526E8230F0296A11DB11DAD
:1004F000D2CF1F920F920FB60F9211242F933F93DA
:100500004F935F936F937F938F939F93AF93BF931B
:10051000EF93FF93E0910301F09104010995FF919E
:10052000EF91BF91AF919F918F917F916F915F916B
:100530004F913F912F910F900FBE0F901F901895E4
:100540001F920F920FB60F9211242F933F934F9348
:100550005F936F937F938F939F93AF93BF93EF932B
:10056000FF93E0910101F09102010995FF91EF9154
:10057000BF91AF919F918F917F916F915F914F91BB
:100580003F912F910F900FBE0F901F9018951F92C3
:100590000F920FB60F9211242F933F934F935F93B7
:1005A0006F937F938F939F93AF93BF93EF93FF933B
:1005B00081E491E00E947701FF91EF91BF91AF91AB
:1005C0009F918F917F916F915F914F913F912F916B
:1005D0000F900FBE0F901F9018951F920F920FB69D
:1005E0000F9211242F938F939F93EF93FF93E0919A
:1005F0005101F09152018081E0915701F091580131
:1006000082FD1BC0908180915A018F5F8F73209172
:100610005B01821741F0E0915A01F0E0EF5BFE4F81
:10062000958F80935A01FF91EF919F918F912F9118
:100630000F900FBE0F901F9018958081F4CFCF932D
:10064000DF93CDB7DEB7A1970FB6F894DEBF0FBE2C
:10065000CDBF789484B5826084BD84B5816084BD4B
:1006600085B5826085BD85B5816085BD80916E0050
:10067000816080936E001092810080918100826081
:1006800080938100809181008160809381008091BE
:1006900080008160809380008091B10084608093AD
:1006A000B1008091B00081608093B00080917A00A9
:1006B000846080937A0080917A00826080937A00CF
:1006C00080917A00816080937A0080917A008068BE
:1006D00080937A001092C100E2E9F0E02491EEE705
:1006E000F0E084918823C9F090E0880F991FFC0105
:1006F000E859FF4F45915491FC01EE58FF4FA591E9
:10070000B4919FB7F894FA01808120958223808369
:100710008C91E22FE823EC939FBFE3E9F0E0249172
:10072000EFE7F0E08491882399F090E0880F991F1B
:10073000FC01E859FF4FA591B491FC01EE58FF4F21
:10074000859194918FB7F894EC91E22BEC938FBF45
:10075000E0915101F091520182E08083E0914D01DE
:10076000F0914E011082E0914F01F09150018FEC19
:10077000808310925901E0915501F091560186E075
:100780008083E0915301F0915401808180618083E6
:10079000E0915301F0915401808188608083E09161
:1007A0005301F0915401808180688083E09153016E
:1007B000F091540180818F7D808386E092E0909358
:1007C0000201809301018091690083608093690038
:1007D000E89A3AE0432E512C612C712C40E0242EF3
:1007E00040E0342EF2E4F0937C0080917A00806443
:1007F00080937A0080917A0086FDFCCF90917800FA
:100800008091790089279827892797FD079623E00B
:10081000959587952A95E1F7909337018093360156
:1008200087E191E00E942202C0903601D09037010A
:100830000D2C000CEE08FF08F7FE73C06DE281E49A
:1008400091E00E94990122273327A9012C193D0923
:100850004E095F0919A28E010F5D1F4FCA01B90130
:10086000A30192010E94D404605DF80162938F019C
:10087000211531054105510589F70115110519F0BB
:10088000C8010E94220283E391E00E9422020AE74B
:1008900010E08091000120913601309137018217DC
:1008A00013061CF48F5F8093000180910001821772
:1008B000130621F01CF08150809300010E94D300A8
:1008C0004B015C018AE0C82ED12CE12CF12C0E9456
:1008D000D300681979098A099B09683E734081052C
:1008E0009105A8F3F1E0CF1AD108E108F10828EE4C
:1008F000820E23E0921EA11CB11CC114D104E1049C
:10090000F10429F70150110921F62114310409F4E9
:1009100069CF0E946301882309F464CF0E9400001C
:1009200061CFA701960119A28E010F5D1F4FCA0169
:10093000B901A30192010E94D404605DF8016293A1
:100940008F01211531054105510589F796CFE1E465
:10095000F1E01382128288EE93E0A0E0B0E084839D
:100960009583A683B78389E091E09183808385ECAA
:1009700090E09587848784EC90E09787868780EC69
:1009800090E0918B808B81EC90E0938B828B82EC5A
:1009900090E0958B848B86EC90E0978B868B118E04
:1009A000128E138E148E0895A1E21A2EAA1BBB1B61
:1009B000FD010DC0AA1FBB1FEE1FFF1FA217B3072B
:1009C000E407F50720F0A21BB30BE40BF50B661F41
:1009D000771F881F991F1A9469F760957095809505
:1009E00090959B01AC01BD01CF010895EE0FFF1F53
:0C09F0000590F491E02D0994F894FFCFDD
:1009FC0080F800F800000000009901F9002601E6DB
:100A0C0001570135014901596F75206172652077D5
:100A1C00726974696E6720612076616C7565206FF0
:060A2C006620000D0A0027
:00000001FF
